:020000040000FA
:10000000FC3F0020ED02000000000000F1020000B3
:1000100000000000000000000000000000000000E0
:1000200000000000000000000000000000000000D0
:10003000000000000000000000000000F7020000C7
:1000400000000000FF0200000000000000000000AF
:1000500000000000000000000000000000000000A0
:100060000000000000000000000000000000000090
:100070000000000000000000000000000000000080
:1000800000F002F800F04DF80CA030C80838241831
:100090002D18A246671EAB4654465D46AC4201D1C0
:1000A00000F03FF87E460F3E0FCCB64601263342A5
:1000B00000D0FB1AA246AB46334318470C0600009B
:1000C0002C060000103A02D378C878C1FAD852073B
:1000D00001D330C830C101D504680C6070470000FE
:1000E0000023002400250026103A01D378C1FBD854
:1000F000520700D330C100D50B60704710B564299A
:1001000002D100F0CDF910BD732902D100F06DFAD3
:1001100010BD002010BD1FB5C046C0461FBD10B5A4
:1001200010BD00F0A7FA1146FFF7F5FF00F037F811
:1001300000F0BFFA03B4FFF7F2FF03BC00F02DF9A3
:100140005121090608784E494E4A127888544D4983
:100150000978491C4B4A1170512109060871114652
:100160000978632901D00D280CD146490978491E28
:10017000444A11700021424A424B1B78D15401215C
:10018000414A11707047704708B50021009102E0A4
:100190000099491C009100998142F9D308BD9AB099
:1001A00008205121090608730220384908603848A0
:1001B000FFF7EAFF37A000F005F95FE00520000730
:1001C00000890521090708803148FFF7DDFF052078
:1001D00000070088FF2148400521090708802C48B6
:1001E000FFF7D2FF052000070088FF2148400521C6
:1001F000090708802648FFF7C7FF2AA000F0E2F8A9
:1002000008E030BF1F480078401E1D49085C0521EA
:10021000090708801C4800780028F2D002201B49FA
:1002200080310860002410E01548005D412806DB9D
:100230001348005D2021484001A9085503E01048FB
:10024000005D01A90855601CC4B20E4800788442C4
:10025000EADD00200B4908700B49087002200B49A9
:1002600008600848027801A914A000F0ABF8052046
:1002700000070089018819A000F0A4F89EE700009B
:100280000C000020000000200100002000E100E040
:1002900040420F000A205741535550204D592047E6
:1002A0000A0000000A5479706520736F6D65206341
:1002B0006861726163746572732000000A3A2D2DC3
:1002C0003E207C25737C2077697468202564206338
:1002D0006861726163746572730A00000A20737743
:1002E00069746368733A2025640A0000094800476E
:1002F00009480A49086007B5FFF745FF07BD07B57C
:10030000FFF71EFF07BD000005480649064A074BD8
:1003100070470000810000000400FA050CED00E0C9
:10032000D0000020D0080020D0040020D0040020FD
:1003300000BF51210906097AC907C90FF9D1512215
:1003400012061071704700BF51210906097A082270
:100350001142F9D0512109060878704710B50346BB
:100360000C460A2B02D10D20FFF7E2FF1846FFF7DB
:10037000DFFF10BD10B50446FFF7E5FF0346184642
:10038000FFF7D6FF0D2B03D10A20FFF7D1FF0A2379
:10039000184610BD01460020704702A000F012F878
:1003A00000BFFEE70A4552524F52202D2065786962
:1003B000742066726F6D206D61696E28290A0000D5
:1003C000704700000FB4054910B503AA029800F069
:1003D00011F910BC08BC04B018470000040000204C
:1003E000F8B50E460446002020622046E1688847A2
:1003F000002829D0252802D06268A16820E0E168A1
:1004000020460027884705001ED028464138192875
:1004100002D80127FF0220353246204627602946B0
:10042000FFF76CFE002808D0012804D0F61DF6085E
:10043000F6000836D9E7361DD7E762682846A16876
:100440009047206A401CCFE7206AF8BD70B50C4683
:100450000546012A05D02878800600D5EA690023E0
:1004600002E0012305E05B1C934202D2E05C00281D
:10047000F9D1A869E618C01AA861286AC0182862CC
:100480002846C046C04604E06A682078A968641C13
:100490009047B442F8D32846C046C04670BD00001D
:1004A000F7B5002575291068009914A611D0C0462B
:1004B000C046002802DA404211A608E00099096807
:1004C0008A0701D50FA602E0490704D50EA601252B
:1004D00001E0C046C046009F0024243704E000F03D
:1004E0009DF830313955641C0028F8D12B4632462E
:1004F0002146009800F00EF8FEBD0000000000004C
:100500002D0000002B000000200000007047704705
:1005100070477047FFB504460D4681B02430009007
:100520002168880604D51022E0699143216000E02B
:100530000120A84201DD471B00E000270498A169C3
:100540007A191018081AA0612078C00602D4204633
:10055000C046C046002608E003986268A168805D36
:100560009047206A401C761C206204988642F3DB88
:100570002078C0060AD52046C046C04606E062681C
:10058000A16830209047206A401C206238467F1EB8
:100590000028F4DC07E000986268A168405D90479D
:1005A000206A401C206228466D1E0028F3DC20468D
:1005B000C046C0462078000602D5022005B0F0BD36
:1005C0000120FBE710B54369002B02D0C046C046AE
:1005D00001E0FFF73BFF012010BD127801462431F6
:1005E0000A7000224A700122ECE711680022D2430F
:1005F000E8E70000084B70B50D467B4400F027F893
:1006000004462846FFF7C6FE002802D00020C0435B
:1006100070BD204670BD00005FFDFFFF01468008F1
:10062000081A02091018020A1018020C1018C00843
:10063000820012185200891A01E00A39401C0A2966
:10064000FBD2704701694A1C02610878704700B507
:100650008FB00291002105910549019379440391DE
:10066000114604906846FFF7BBFE0FB000BD0000C6
:10067000E5FFFFFF754600F023F8AE46050069462A
:100680005346C008C000854618B020B5FFF73CFEB1
:1006900060BC00274908B6460026C0C5C0C5C0C515
:1006A000C0C5C0C5C0C5C0C5C0C5403D49008D4618
:1006B00070470446C046C0462046FFF73BFD000099
:1006C0000048704770000020E8060000000000208D
:1006D0000C000000C4000000F40600000C00002024
:1006E000C4080000E0000000000000000400005109
:0406F00000000051B5
:04000005000002ED08
:00000001FF
